:040000001DEF0DF0F3
:1000080000C01EF001C01DF002C01CF003C01BF0B0
:1000180004C01AF005C019F008C018F009C017F09C
:100028000AC016F00BC015F0E1CF27F0E2CF28F098
:10003800E9CF25F0EACF26F0F3CF23F0F4CF24F070
:10004800F5CF22F0F8CF1FF0F7CF20F0F6CF21F050
:10005800FAEC0BF022C0F5FF1FC0F8FF20C0F7FF35
:1000680021C0F6FF23C0F3FF24C0F4FF1EC000F038
:100078001DC001F01CC002F01BC003F01AC004F040
:1000880019C005F018C008F017C009F016C00AF02A
:1000980015C00BF025C0E9FF26C0EAFF27C0E1FF25
:0600A80028C0E2FF110078
:1000AE001E0E716E100E0401D26F040ED36FD2C4E9
:1000BE00E1FFD3C4E2FFE69ED2C4E1FFD3C4E2FF68
:1000CE00E69C040ED225E16E000ED321E26EE68C84
:1000DE00180EC76F040EC86FC7C4E1FFC8C4E2FF95
:1000EE00E69EC7C4E1FFC8C4E2FFE69C040EC72526
:1000FE00E16E000EC821E26EE68C020ED225E16E94
:10010E00000ED321E26ED4C4E6FFD5C4E6FF010E85
:10011E00D225E16E000ED321E26E400EE66ED2C401
:10012E00E9FFD3C4EAFFEECF00F0D2C4E1FFD3C49F
:10013E00E2FF400E0014E66ED2C4E9FFD3C4EAFF1C
:10014E00EECF00F0880E0012D2C4E1FFD3C4E2FF5E
:10015E0000C0E6FFD2C4D8F4D3C4D9F4040ED21929
:08016E00006E00C0D2F4120083
:100176000B6A0A6A096A00500402F4CF09F0F3CF49
:1001860008F001500502F4CF0BF0F3CF0AF000504F
:100196000502F3500926F4500A22E86A0B220150A0
:1001A6000402F3500926F4500A22E86A0B2208C01A
:1001B60000F009C001F00AC002F00BC003F0120003
:1001C600000E0401CE5D02E1080ECD5D10E2CDC445
:1001D60003F0CEC404F0DA51000A03E1010EDA6F2F
:1001E60005D0DA51010A02E1020EDA6F04D0080ED8
:1001F600036E000E046EC5C4E1FFC6C4E2FFE692BC
:10020600C5C4E1FFC6C4E2FFE690C5C4E9FFC6C4A3
:10021600EAFFEECF00F0C5C4E1FFC6C4E2FF04501A
:100226000010E66E010EC525E16E000EC621E26ED7
:1002360003C0E6FF0350CD5D006E0450CE59016E3B
:1002460000C0CDF401C0CEF4280E0301F06F040EF9
:10025600F16F0401CCB131D0035004102DE0C9C4B4
:10026600F6FFCAC4F7FFCBC4F8FF0900F5CF00F0CC
:10027600F0C3E1FFF1C3E2FF00C0E6FF0301F04B6C
:10028600F12B010E0401C925006E000ECA21016E74
:10029600000ECB21026E00C0C9F401C0CAF402C030
:1002A600CBF4010E035C006E000E0458016E00C014
:1002B60003F001C004F0D0D726D00350041023E089
:1002C600C9C4E9FFCAC4EAFFF0C3E1FFF1C3E2FF14
:1002D600EECFE6FF0301F04BF12B010E0401C92519
:1002E600006E000ECA21016E00C0C9F401C0CAF436
:1002F600010E035C006E000E0458016E00C003F090
:0803060001C004F0DAD7120077
:10030E000401CC8F716AC26B22C4C3F4C351000ABC
:10031E0003E1100EC46F03D0200EC46FC1DE1200B5
:10032E0004012051800AD8A471D0C00ECC6F64D0C5
:10033E00750E006E200E016E000E026E00C0C9F426
:10034E0001C0CAF402C0CBF4120ECD6F000ECE6FF8
:10035E005DD0030E006E000E016E22C404F0000E7E
:10036E00056E02DFED0E0024E96E030E0120EA6E2B
:10037E00EECFC9F4EECFCAF4EECFCBF4020EC92500
:10038E00F66E000ECA21F76E000ECB21F86E090034
:10039E00F5CF00F00900F5CF01F000C0CDF401C09B
:1003AE00CEF434D02251D75D23E3030E006E000E3F
:1003BE00016E22C404F0000E056ED6DEE40E00249B
:1003CE00E96E030E0120EA6EEECFC9F4EECFCAF449
:1003DE00EECFCBF4C9C4F6FFCAC4F7FFCBC4F8FF07
:1003EE000900F5CF00F000C0CDF4000ECE6F01D0A5
:1003FE00CC6B0CD0CC6B0AD02351010A99E023515F
:0E040E00020AA7E02351030ACDE0F4D7120042
:10041C0020C401F01F0E01160150010A01E08BD01F
:10042C0004012451000A01E086D02151060A3EE164
:10043C0034D0C351010A17E11E0E006E200E016E5E
:10044C00000E026E120E0026000E0122022200C0C7
:10045C00C9F401C0CAF402C0CBF4090ECD6F000E72
:10046C00CE6FC00ECC6F22D0C351010A12E1DF0E49
:10047C00006E1F0E016E000E026E00C0C9F401C0AA
:10048C00CAF402C0CBF43F0ECD6F000ECE6FC00E7F
:10049C00CC6F0CD0800ECC6F09D02351210AC9E04F
:1004AC002351220AE1E02351230AF4E020C401F095
:1004BC00600E0116050E006E005004E00132019E24
:1004CC00FF0FFBD70150010A01E035D022D033D009
:1004DC0032D0F20EC96F030ECA6F010ECD6F000E33
:1004EC00CE6FC10ECC6F27D0800ECC6F23C4F2F32D
:1004FC0022D0F30EC96F030ECA6F010ECD6F000E22
:10050C00CE6F810ECC6F17D0800ECC6F22C4F3F35C
:10051C0012D02151010ADBE02151090AD9E0215105
:10052C00020AD7E021510A0ADFE02151030AE1E077
:08053C0021510B0AE9E0120055
:1005440004012251010A0FE120C401F01F0E01161B
:100554000150000A08E1CC8F2151030A03E1010E86
:10056400CF6F01D0CF6B2251000AD8A48BD020C406
:1005740001F01F0E01160150020AD8A483D024C42E
:1005840001F00F0E01160150000AD8B47BD0CC8FB5
:1005940024BF16D024C403F00F0E031603C000F0CA
:1005A400000E016E003600900136D00E0024E96E74
:1005B400040E0120EA6EEECF04F0EECF05F015D064
:1005C40024C403F00F0E031603C000F0000E016EE6
:1005D400003600900136C50E0024E96E040E012099
:1005E400EA6EEECF04F0EECF05F02151030A07E1E5
:1005F40004C0E1FF05C0E2FF840EE66E43D024C4CC
:1006040000F00F0E0016700E026E0F0E036E0050F7
:100614000226D8B0032A02C0E9FF03C0EAFFFE0E97
:10062400EE14006EEECF01F0FF0E011602C0E1FFE2
:1006340003C0E2FF00C0E6FF01C0E6FF24AF11D013
:1006440004C0E1FF05C0E2FFE66A040E0418006E70
:1006540000C004F004C0E1FF05C0E2FF400EE66EF6
:1006640011D004C0E1FF05C0E2FF880EE66E040E5F
:100674000418006E00C004F004C0E1FF05C0E2FFEE
:06068400C80EE66E120034
:10068A000401286B296B42D0CC8F2881CF51010AF3
:10069A00D8B4288350D0CC8F4ED0CC8F24BF16D05C
:1006AA0024C403F00F0E031603C000F0000E016EFF
:1006BA00003600900136D00E0024E96E040E0120A7
:1006CA00EA6EEECF04F0EECF05F015D024C403F0A5
:1006DA000F0E031603C000F0000E016E00360090E4
:1006EA000136C50E0024E96E040E0120EA6EEECF33
:1006FA0004F0EECF05F004C0E9FF05C0EAFFEECF33
:10070A0001F001A402D0010E286F15D020C401F017
:10071A001F0E01160150000AB7E020C401F01F0E97
:10072A0001160150010AB7E020C401F01F0E01169C
:10073A000150020AB2E0CCAF07D0280EC96F040EEE
:0A074A00CA6FCC81020ECD6F1200C1
:100754006D980401CCBF4BD0B6AF29D0020ED66F32
:10076400010EC525E16E000EC621E26EE66AC5C41F
:10077400E1FFC6C4E2FFC80EE66E010E0301F425D4
:10078400E16E000EF521E26E080EE66E020EF4250F
:10079400E16E000EF521E26E280EE66E040EE66EA2
:1007A400F4C3E1FFF5C3E2FFC80EE66E1FD00301F8
:1007B400010EF425E16E000EF521E26E080EE66EE0
:1007C400020EF425E16E000EF521E26E200EE66EB7
:1007D400040EE66EF4C3E1FFF5C3E2FF8C0EE66E91
:1007E400C5C4E1FFC6C4E2FF840EE66E82D00401F4
:1007F400B6BF7FD020AF55D0CE51275D02E1CD5199
:10080400265D04E226C4CDF427C4CEF4DADC010E5E
:10081400D66F010E0301F425E16E000EF521E26EA0
:10082400080EE66E020EF425E16E000EF521E26E6E
:10083400200EE66E040EE66EF4C3E1FFF5C3E2FF9C
:10084400800EE66E0401C16B010E0301F625E16E14
:10085400000EF721E26E080EE66E020EF625E16E3A
:10086400000EF721E26E200EE66E040EE66EF6C36D
:10087400E1FFF7C3E2FF840EE66E010E0401C16FCF
:10088400020EC525E16E000EC621E26E280EE66E4C
:10089400040EE66EC5C4E1FFC6C4E2FFC80EE66EF0
:1008A40028D0020ED66F010EC525E16E000EC621BA
:1008B400E26EE66AC5C4E1FFC6C4E2FFC80EE66E96
:1008C400010E0301F425E16E000EF521E26E080E1F
:1008D400E66E020EF425E16E000EF521E26E280E9E
:1008E400E66E040EE66EF4C3E1FFF5C3E2FFC80E44
:0408F400E66E12009A
:1008F8001E0E0301ED6F200EEE6F000EEF6F870ED8
:10090800E46F200EE56F000EE66F610EE76F200EB4
:10091800E86F000EE96F470EEA6F200EEB6F000ECE
:04092800EC6F12005E
:0A092C000301FD5301E074DD120029
:10093600010E0301F625E96E000EF721EA6EEECFF1
:1009460000F000C002F0000E0401B85D02E10250A2
:10095600B75D03E2B7C402F00AD00250B75D006E7D
:10096600000EB859016E00C0B7F401C0B8F4036AAE
:100976000250035C1CE2280EE96E040EEA6E035078
:10098600E926D8B0EA2AEECF00F0B4C4E1FFB5C438
:10099600E2FF00C0E6FF010EB425006E000EB52191
:1009A600016E00C0B4F401C0B5F4032AE1D7000E0D
:1009B600006EB851005C02E1B751000829E2010E51
:1009C6000301F425E16E000EF521E26E080EE66ED7
:1009D600020EF425E16E000EF521E26E280EE66E9B
:1009E600040EE66EF6C3E9FFF7C3EAFFEECF00F0AA
:1009F60000BC07D0F4C3E1FFF5C3E2FFC80EE66E04
:100A060006D0F4C3E1FFF5C3E2FF880EE66E1BD005
:100A16000301010EF425E16E000EF521E26E080ECB
:100A2600E66E020EF425E16E000EF521E26E200E52
:100A3600E66E040EE66EF4C3E1FFF5C3E2FF840E34
:080A4600E66E0401B69F1200E8
:100A4E0020C401F0600E0116050E006E005004E089
:100A5E000132019EFF0FFBD70150000A01E059D071
:100A6E0035D00401CC8F080EC46F53D059DC51D051
:100A7E0047DC4FD0C30EC96F040ECA6FCC81010E76
:100A8E00CD6FCC8F46D0FADD44D055DD42D0C20EAC
:100A9E00006E040E016E24510026D8B0012A00C04B
:100AAE00C9F401C0CAF4CC81010ECD6FCC8F31D008
:100ABE00CC8FC20EE16E040EE26E2451E126D8B048
:100ACE00E22A22C4E6FF25D024D023D004012151EE
:100ADE00050AC7E02151060AC9E02151090AC8E0FA
:100AEE002151080AC7E02151000ACDE02151010A27
:100AFE00CCE02151030AC9E021510A0AC8E0215174
:100B0E000B0AD6E02151070ADFE021510C0ADDE085
:040B1E00DCD712000E
:0E0B2200160E6F6E9F0E6B6E3B0E696E12000C
:100B30000401D66BC5C4E1FFC6C4E2FFE66A040E39
:100B4000C519E16EC6C4E2FF000EE21AE66AB6AF4E
:060B500001D0B69F120067
:100B5600040E0401C519006E00C0C5F4C451080A8C
:100B66000AE122C46EFF6E50000803E2100EC46F45
:100B760002D0040EC46FD651010A3BE1020EC52510
:100B8600E16E000EC621E26E280EE66E040EE66EDB
:100B9600E3EC00F0DA51020A07E1C5C4E1FFC6C47E
:100BA600E2FF840EE66E24D0040EC519006E00C066
:100BB600C5F4C5C4E9FFC6C4EAFFEECF00F000BC29
:100BC6000CD0040EC519006E00C0C5F4C5C4E1FF03
:100BD600C6C4E2FFC80EE66E0BD0040EC519006E41
:100BE60000C0C5F4C5C4E1FFC6C4E2FF880EE66EC8
:060BF60001D09BDF12009C
:100BFC000401D651020A02E198DE20D093DFC151E4
:100C0C00000A1AE1010E0301F425E16E000EF52134
:100C1C00E26E080EE66E020EF425E16E000EF52172
:100C2C00E26E200EE66E040EE66EF4C3E1FFF5C331
:0E0C3C00E2FF8C0EE66E02D00401C16B1200C6
:100C4A0056DE0401D86BD96B0301FE6BFF6B6A6A2F
:100C5A00686A62DF6D8C6E6A716A6D9CFA6BFB6BF7
:100C6A00000EFB5D02E1080EFA5D17E2FAC300F01E
:100C7A00FBC301F0003600900136003600900136C1
:100C8A00000E0024E16E040E0120E26EE66AE66AB6
:100C9A00E66AE66AFA4BFB2BE3D7160E706E68A675
:100CAA0003D0F70E6816FBD70401CC6BB66BB76B93
:100CBA00B86B6D98080EC56F040EC66FC36BC46B14
:020CCA00120016
:100CCC0070A01CD0F6C3E9FFF7C3EAFFEECF01F02A
:100CDC000150800A12E1C5C4E9FFC6C4EAFFEECF99
:100CEC0001F0000E000A02E1840E011806E1F6C3C1
:100CFC00E1FFF7C3E2FF8C0EE66E7090DF0E681614
:020D0C001200D3
:0A0D0E006984EF0E68166D82120072
:100D1800C5C4E9FFC6C4EAFFEECF00F000AE05D0B7
:100D2800C5C4E1FFC6C4E2FFE66A0401DA6BD66B0C
:0E0D3800CD6BCE6BCC6B87DEF5DD08DD1200D7
:040D4600A19A12005C
:100D4A006D92699468A403D0FB0E6816FBD7120053
:100D5A00000E0401EB1902E1000EEA1902E1016A30
:100D6A000AD0EAC4E9FFEBC4EAFFEECF00F0000EB6
:0C0D7A0000BE010E016E01C000F012006E
:100D86000401EB51000A12E0EAC400F0000E016E05
:100D9600003600900136C50E0024E96E040E0120CF
:100DA600EA6EEECF04F0EECF05F011D0EAC400F003
:100DB600000E016E003600900136D00E0024E96E5A
:100DC600040E0120EA6EEECF04F0EECF05F0020E1F
:100DD6000424E16E000E0520E26EECC4E6FFEDC4CD
:100DE600E6FF010E0424E16E000E0520E26EEEC45D
:100DF600E6FF04C0E9FF05C0EAFFEECF00F004C03D
:100E0600E1FF05C0E2FF400E0014E66E04C0E9FFF4
:100E160005C0EAFFEECF00F0880E001204C0E1FF25
:100E260005C0E2FF00C0E6FFEB51000A1BE0EAC482
:100E360000F0000E016E003600900136C50E00244B
:100E4600026E040E0120036E02C0E9FF03C0EAFF32
:100E5600040EEE18006E02C0E1FF03C0E2FF00C000
:100E6600E6FF1AD0EAC400F0000E016E00360090CC
:100E76000136D00E0024026E040E0120036E02C05D
:100E8600E9FF03C0EAFF040EEE18006E02C0E1FFA0
:100E960003C0E2FF00C0E6FF04C000F005C001F099
:020EA600120038
:100EA8000401C451000A0AE16D6A696A36DE6DB64A
:100EB80002D06D86FCD70401010EC46FC451010A2B
:100EC80008E16DBA06D0686A696A69806988020EA5
:100ED800C46F68A405D069A403D0FB0E681631DF7F
:100EE8006DA202D02CDFD7D068A017D069A015D08A
:100EF800A8DE040EC46F200E026F040E036F080EE6
:100F0800016F000E0015006E00C000F48C0E001179
:100F1800006E00C000F4FE0E681668A805D069A827
:100F280003D0F1DEEF0E681668AC04D069AC02D0CD
:100F3800BF0E681668AA03D069AA01D0C3DE68A2EA
:100F480002D069B26A6A040E0401C45D02E2F7DEE7
:100F5800A2D069A69FD0EB6B040EEB5DD8B09AD0F7
:100F680068A694D06CCFFCF3F70E6816780E0301D0
:100F7800FC15016E0150000AD8A487D0FD0EFC159F
:100F8800016E026AFF0E0216000E021802E1000E40
:100F980001186CE17E0EFC15016E01C003F00332EE
:100FA800039E03C000F0000E016E0036009001366B
:100FB800003600900136000E0024026E040E012057
:100FC800036E02C0F6F303C0F7F302C0F4F303C0E4
:100FD800F5F3040EF419006E00C0F4F302C0E9FF43
:100FE80003C0EAFFEECF00F000C001F03C0E01168E
:100FF8000132019E0132019E01500D0A35E1020EB7
:10100800F625E96E000EF721EA6EEECF01F0EECF7D
:1010180002F00250040A02E1280E011823E1020E30
:10102800F625E16E000EF721E26E200EE66E040E44
:10103800E66E0401EA6B080EEA5D14E2200EE16E2A
:10104800040EE26EEA51E126D8B0E22A280EE96ED3
:10105800040EEA6EEA51E926D8B0EA2AEECFE6FF96
:10106800EA2BE9D755DE01D0C5DD0ED0FD0E030110
:10107800FC15016E026AFF0E0216000E021802E14C
:10108800040E011801E163DD00D001D003D0040192
:08109800EB2B62D754DE1200BD
:1010A000750E006E200E016E000E026E0E0E0024F4
:1010B000F66E000E0120F76E000E0220F86E090099
:1010C000F5CF03F003C004F00F0E0024F66E000EFF
:1010D0000120F76E000E0220F86E0900F5CF01F036
:1010E0000150035C12E2750E006E200E016E000EC0
:1010F000026E0F0E0024F66E000E0120F76E000E39
:101100000220F86E0900F5CF04F0750E006E200E77
:10111000016E000E026E100E0024F66E000E01200D
:10112000F76E000E0220F86E0900F5CF01F00150B5
:10113000045C12E2750E006E200E016E000E026E4F
:10114000100E0024F66E000E0120F76E000E022035
:0E115000F86E0900F5CF04F004C000F01200A4
:10115E00200E0401C45D03E36DB201D002D0006A1B
:10116E0050D0FEC3EAF4FFC3EBF4F0DD005248E1C9
:10117E00E7C4EAF4010EEB6FE4C4ECF4E5C4EDF45D
:10118E00E6C4EEF4F9DD00C0FEF301C0FFF3BD6B63
:10119E00BE6BBF6BC06BFEC3EAF4FFC3EBF4D6DDD0
:1011AE00005217E0200EC45D03E36DB201D002D0F1
:1011BE00006A27D0010E016E0150000A01E16DDEBA
:1011CE000401BD51BE11BF11C01102E0006A19D059
:1011DE00E2D7FEC3E8F4FFC3E9F4000E0301FF19E2
:1011EE0002E1000EFE190AE0010E0401E825E96E87
:1011FE00000EE921EA6EEECF00F003D0006A01D0B6
:04120E00006A120060
:0A121200D08EA28AA08AF28E12008C
:10121C000401E4517A0806E3610EE45D03E3010E78
:08122C00006E01D0006A1200FF
:101234000401E4515A0806E3410EE45D03E3010EA0
:08124400006E01D0006A1200E7
:10124C000401E76BE86BE96B020EE425F66E000E09
:10125C00E521F76E000EE621F86E0900F5CF05F0DA
:10126C00030EE425F66E000EE521F76E000EE62166
:10127C00F86E0900F5CF00F000C003F0000E046E0C
:10128C0003C001F0006A05500024066E000E012018
:10129C00076EE4C408F0E5C409F0E6C40AF0010ED8
:1012AC000824F66E000E0920F76E000E0A20F86E68
:1012BC000900F5CF01F00150020A1BE1060E0824CB
:1012CC00F66E000E0920F76E000E0A20F86E09006B
:1012DC00F5CF01F00150E75D0CE2060E0824F66E26
:1012EC00000E0920F76E000E0A20F86E0900F5CFEB
:1012FC00E7F4010E0824F66E000E0920F76E000EBE
:10130C000A20F86E0900F5CF01F00150040A1BE128
:10131C00080E0824F66E000E0920F76E000E0A2047
:10132C00F86E0900F5CF01F00150E75D0CE2080EF4
:10133C000824F66E000E0920F76E000E0A20F86ED7
:10134C000900F5CFE7F408C0F6FF09C0F7FF0AC0A3
:10135C00F8FF0900F5CF00F00050E825016E000EF3
:10136C00E921026E01C0E8F402C0E9F40750025C06
:10137C0002E10650015C01E30FD008C0F6FF09C082
:10138C00F7FF0AC0F8FF0900F5CF00F0005008265F
:0E139C00000E09220A2283D7E7C400F01200D7
:1013AA000401E151390806E3300EE15D03E3010E61
:0813BA00006E01D0006A120070
:1013C2000401E1511F0805E2E1517F0A02E0006ACF
:0813D20002D0010E006E1200B2
:1013DA000401C451000A0BE16D6A696A91EC05F0D7
:1013EA0013DF6DB602D06D86FCD7010EC46F1200F2
:1013FA00E1C4E4F4E2C4E5F4E3C4E6F4010E040152
:06140A00E76FA8DE1200EE
:10141000E1C4E4F403DF005207E1E1C4E4F40ADFCD
:0E142000005202E1006A02D0010E006E1200BE
:10142E000401E1517A0804E3610EE15DD8B0E19B5D
:06143E00E1C400F0120001
:101444002DDE00C0E1F41E0E0401E46F200EE56FF2
:10145400000EE66FF9DE00C0E2F4E151005C03E245
:0C146400E1C400F002D0E2C400F012006D
:10147000E9DF00C0D7F4010E0301FD6FDDC4D4F431
:10148000DEC4D5F4DFC4F8F3E0C4F9F325EC06F0CC
:0E149000010E016E0150010A01E19FDF120002
:10149E000401DE6BDF6BDDC4E1F48CDF005203E090
:1014AE00010EDE6F1BD0DDC4E1F4ABDF00520CE0A9
:1014BE00020EDE6FDDC4E4F4B6DE005203E0020E6F
:1014CE00DF6F01D0DF6B0AD0DDC4E1F467DF0052BD
:1014DE0003E0030EDE6F02D0040EDE6F2ED1DD515F
:1014EE000D0A04E0DD510A0A01E003D0280EDD6F7B
:1014FE000BD0DD51090A03E12B0EDD6F05D0DD5156
:10150E00080A02E12A0EDD6F29D1DDC4E1F488DF7D
:10151E0000C0DDF4410E005CDD6F040EDD271ED130
:10152E00DD51300A03E1620EDD6F04D0310EDD5F56
:10153E00590EDD2713D1DD512D0A04E0DD515F0A6E
:10154E0001E008D0DD515F0A02E1020EDF6F2D0EC1
:10155E00DD6FF1D0DD512B0A04E0DD513D0A01E0D3
:10156E0008D0DD513D0A02E1020EDF6F2E0EDD6F57
:10157E00E2D0DD517B0A04E0DD515B0A01E008D0C8
:10158E00DD517B0A02E1020EDF6F2F0EDD6FD3D02D
:10159E00DD517D0A04E0DD515D0A01E008D0DD5128
:1015AE007D0A02E1020EDF6F300EDD6FC4D0DD5119
:1015BE005C0A04E0DD517C0A01E008D0DD517C0AB2
:1015CE0002E1020EDF6F310EDD6FB5D0DD51090A7B
:1015DE0003E12B0EDD6FAFD0DD513A0A04E0DD5191
:1015EE003B0A01E008D0DD513A0A02E1020EDF6F3C
:1015FE00330EDD6FA0D0DD51270A04E0DD51220A43
:10160E0001E008D0DD51220A02E1020EDF6F340E36
:10161E00DD6F91D0DD51600A04E0DD517E0A01E0FC
:10162E0008D0DD517E0A02E1020EDF6F350EDD6F4E
:10163E0082D0DD512C0A04E0DD513C0A01E008D0D5
:10164E00DD513C0A02E1020EDF6F360EDD6F73D004
:10165E00DD512E0A04E0DD513E0A01E008D0DD51D5
:10166E003E0A02E1020EDF6F370EDD6F64D0DD51F0
:10167E002F0A04E0DD513F0A01E008D0DD513F0A98
:10168E0002E1020EDF6F380EDD6F55D0DD51210AFB
:10169E0005E1020EDF6F1E0EDD6F4DD0DD51400AEB
:1016AE0005E1020EDF6F1F0EDD6F45D0DD51230AFF
:1016BE0005E1020EDF6F200EDD6F3DD0DD51240AF5
:1016CE0005E1020EDF6F210EDD6F35D0DD51250AEB
:1016DE0005E1020EDF6F220EDD6F2DD0DD515E0AA9
:1016EE0005E1020EDF6F230EDD6F25D0DD51260AD8
:1016FE0005E1020EDF6F240EDD6F1DD0DD512A0ACB
:10170E0005E1020EDF6F250EDD6F15D0DD51280AC3
:10171E0005E1020EDF6F260EDD6F0DD0DD51290AB9
:10172E0005E1020EDF6F270EDD6F05D0DD51200AB9
:10173E0002E12C0EDD6F12D011D0DE51010AD8B4A9
:10174E00CED6DE51020AD8B4E0D6DE51030AD8B4A2
:10175E00E7D6DE51040AD8B4EED6EED7DFC440F594
:10176E000501416BDDC442F5436B446B456B466B23
:10177E00476B400E0401E16F050EE26F080EE36F3A
:10178E0035DE005201E1F5D7020E0B6ED40E0C6E53
:10179E00850E0D6E0D2EFED70C2EFCD70B2EFAD706
:1017AE000501406B426B400E0401E16F050EE26FC6
:1017BE00080EE36F1BDE005201E1F5D7020E0B6E31
:1017CE00D40E0C6E850E0D6E0D2EFED70C2EFCD784
:0617DE000B2EFAD71200E9
:1017E4000900F5CFE6FF0006FBE10106F9E112006E
:1017F4000401C451010A07E16DBA05D0686A698021
:101804006988020EC46F68A406D069A404D0FB0ED4
:101814006816A5EC06F06DA203D0A3EC06F0DFD0A9
:1018240068A018D069A016D025EC06F0040EC46F89
:10183400200E026F040E036F080E016F000E0015D8
:10184400006E00C000F48C0E0011006E00C000F4A5
:10185400FE0E681668A806D069A804D087EC06F0C6
:10186400EF0E681668AC04D069AC02D0BF0E6816DF
:1018740068AA04D069AA02D066EC06F068A202D075
:1018840069B26A6A040E0401C45D03E2A3EC06F0C3
:10189400A6D069A6A2D0F06B040EF05DD8B09DD09E
:1018A40068A697D06CCFFCF3F70E6816780E030188
:1018B400FC15016E0150000AD8A48AD0FD0EFC1557
:1018C400016E026AFF0E0216000E021802E1000EFB
:1018D40001186EE17E0EFC15016E01C003F00332A7
:1018E400039E03C000F0000E016E00360090013626
:1018F400003600900136000E0024026E040E012012
:10190400036E02C0F6F303C0F7F302C0F4F303C09E
:10191400F5F3040EF419006E00C0F4F302C0E9FFFD
:1019240003C0EAFFEECF00F000C001F03C0E011648
:101934000132019E0132019E01500D0A36E1020E70
:10194400F625E96E000EF721EA6EEECF01F0EECF38
:1019540002F00250040A02E1280E011823E1020EEB
:10196400F625E16E000EF721E26E200EE66E040EFF
:10197400E66E0401EF6B080EEF5D14E2200EE16EDB
:10198400040EE26EEF51E126D8B0E22A280EE96E89
:10199400040EEA6EEF51E926D8B0EA2AEECFE6FF4C
:1019A400EF2BE9D78CEC06F002D0FEEC05F00FD05B
:1019B400FD0E0301FC15016E026AFF0E0216000EF5
:1019C400021802E1040E011802E1ABEC05F000D0AC
:1019D40001D003D00401F02B5FD7A3EC06F0120072
:1019E400DBC4E9FFDCC4EAFFEE520BE0DBC4E9FF31
:1019F400DCC4EAFFEECFDDF450DD0401DB4BDC2B6D
:041A0400EFD7120006
:101A0800000E0401DD6F050EDE6F400EDF6F050E60
:101A1800E06F2ADD3D0E0B6EE10E0C6E3F0E0D6E73
:101A28000D2EFED70C2EFCD70B2EFAD70000000087
:021A380012009A
:101A3A0046EC10F0E4DF7A0E0B6EC10E0C6E810ECE
:101A4A000D6E0D2EFED70C2EFCD70B2EFAD70000EA
:101A5A000000880EDB6F040EDC6FBFDFB50E0401D9
:101A6A00DB6F010EDC6FB9DF890E0401DB6F010E3B
:101A7A00DC6FB3DF5D0E0401DB6F010EDC6FADDFDF
:101A8A00E10E0401DB6F010EDC6FA7DF650E0401B6
:101A9A00DB6F020EDC6FA1DF390E0401DB6F020E71
:101AAA00DC6F9BDF0D0E0401DB6F020EDC6F95DF2E
:101ABA00810E0401DB6F000EDC6F8FDF550E04010F
:101ACA00DB6F000EDC6F89DF290E0401DB6F000E6D
:101ADA00DC6F83DFAD0E0401DB6F000EDC6F7DDF90
:101AEA00310E0401DB6F010EDC6F77DF050E040196
:101AFA00DB6F010EDC6F71DFD90E0401DB6F000EA4
:101B0A00DC6F6BDF600E0401DB6F030EDC6F65DFD9
:101B1A00340E0401DB6F030EDC6F5FDF080E040175
:101B2A00DB6F030EDC6F59DF8C0E0401DB6F030ED3
:101B3A00DC6F53DF5C0E0401DB6F040EDC6F4DDFDC
:101B4A00300E0401DB6F040EDC6F47DFB80E0401B0
:101B5A00DB6F030EDC6F41DFBF0E0401DB6F020E89
:101B6A00DC6F3BDF930E0401DB6F020EDC6F35DFA7
:101B7A00910E0401DB6F020EDC6F2FDFEB0E040106
:101B8A00DB6F020EDC6F29DFED0E0401DB6F020E44
:061B9A00DC6F23DFFFD722
:10208C0010EE29F0BB0E006E040E016EA00EF66E63
:10209C001B0EF76E000EF86EF2EC0BF014EE30F037
:1020AC00840E006E010E016E5B0EF66E1F0EF76E47
:0A20BC00000EF86EF2EC0BF01200BB
:101BA00020206D2E202020202020202020202020DA
:101BB000202020643A2020202020202020202020C7
:0C1BC0002020202020202E6D20200D0071
:101BCC0020206D2E202D2D2D2F2B2B2B2B2B2B2F27
:101BDC002E20206D2E202020202E2F2B2B2B2B2B3C
:0C1BEC002B2F2D2D2D202E6D20200D0004
:101BF8002020642B792F3A2F796F2B2B2F2B6F797D
:101C08003A203A6420202020203A796F2B2F2B2B62
:0C1C18006F792F3A2F792B6420200D00EB
:101C24002020642D2020202020202020202020205F
:101C3400202020792F202020202020202020202038
:0C1C44002020202020202D6420200D00F6
:101C50002020202B79203A6479642F2E20202F6FAA
:101C6000796D792F2D2D2F796D686F2F20202E2FD4
:0C1C70006479643A20792B2020200D00BC
:101C7C0020202E6D736F2F3A3A3A2F2F6F6F6D20F5
:101C8C002E2D203A2D2020202D2E206D6F6F2F2FE2
:0C1C9C003A3A3A2F6F736D2E20200D0095
:101CA80020206F732F2020202020202020202D206E
:101CB800202020732B2020202020202D20202020B1
:0C1CC80020202020202F736F20200D0012
:101CD40020202E4E2020202020202E2E20202020A8
:101CE40020202020202020202020202020202E2ED4
:0C1CF4002020202020204E2E20200D005B
:101D000020202073732E202020202020202020201F
:101D100020202020202020202020202020202020C3
:0C1D2000202020202E73732020200D00B6
:101D2C00202020202D6F6F6F2B3A2E20202020207A
:101D3C002020202020202020202020202020202E89
:0C1D4C003A2B6F6F6F2D202020200D001F
:101D580020203A68202F797979796F6F2B6F6F3A45
:101D68002E20202020202020202E3A6F6F2B6F6FEE
:0C1D7800797979792F20683A20200D003D
:101D84002020682B2E202020202E2E2E2E2E2E2E8C
:101D94003A6F732E202020202E3A2E2E2E2E2E2EF9
:0C1DA4002E202020202E2B6820200D0077
:101DB0002020792B2D20202020202020203A6F6FFA
:101DC0002F646F202020206F792F6F6F3A20202002
:0C1DD00020202020202D2B7920200D0049
:101DDC0020206F7373642B3A2D3A2B6F6F3A2D3A88
:101DEC006F6F2D202020202D6F6F3A2E3A6F6F2FA2
:0C1DFC003A2D3A2B6473736F20200D0009
:021E08000D00CB
:101E0A002020202020202020202020202020202EBA
:101E1A002B6F736D6F6F6D736F2B2E202020202018
:0C1E2A00202020202020202020200D005F
:101E3600202020202020202020202020203A736FE0
:101E46002D202B732020732B202D73733A202020F6
:0C1E5600202020202020202020200D0033
:021E62000D0071
:101E6400596F752068617665206265656E206861CA
:0B1E7400636B656421203B2D290D00ED
:101E7F0020202020202E683A2020202E2E2D2D3A93
:101E8F007368686F2F2F6F6868793A2D2D2E2E206B
:0C1E9F0020202F682E20202020200D0085
:101EAB002020202020682F20202B73736F2B2B2BAF
:101EBB002F2D3A792B2B793A2D2F2B2B6F6F737389
:0C1ECB002B20202F6820202020200D005C
:101ED70020202020792B20207979792B2F2F3A3A2F
:101EE70073732E3A79793A2E73733A3A2F2F2B79E7
:0C1EF700797920202B79202020200D007C
:101F030020202020202020792B202020202020206A
:101F13002E73797373737368732E2020202020200F
:0C1F2300202B79202020202020200D0001
:101F2F0020202020202020202020203A792B202024
:101F3F002020683A20203A68202020202B793A2050
:0C1F4F00202020202020202020200D0039
:101F5B002020202020202020202D796F20202020C1
:101F6B002020792F20202F792020202020206F79EE
:0C1F7B002D2020202020202020200D0000
:101F870020202020202020202B792E2020202020D8
:101F9700202E7373202073732E2020202020202EC4
:0C1FA700792B20202020202020200D007D
:101FB30020202020202020202E3A2B6F6F6F6F6F60
:101FC3006F6F6F6F6F6F6F6F6F6F6F6F6F6F6F2B62
:0C1FD3003A2E20202020202020200D008D
:101FDF0005010906A101050719E029E715002501EB
:101FEF0075019508810295017508810395057501A5
:101FFF0005081901290591029501750391039506AD
:0F200F007508150025650507190029658100C0B2
:10201E0009022900010100803209040000020300B8
:10202E000000092101010001223F00070581034044
:09203E0000010705010340000147
:102047001A0355005300420020004B006500790039
:0A20570062006F0061007200640077
:1020610014034D006900630072006F006300680093
:042071006900700092
:1020750012010002000000083412010000010102F3
:02208500000158
:042087000403090441
:020000040030CA
:0E000000000C1F1EFF8381FF0FC00FE00F409A
:00000001FF
