:100000000EEF00F00000000000EF00F00000000024
:0A0010000000000000000000F3D71C
:10001C009388070E926E896A000E021802E1010E97
:10002C0001182DE1FE0E891689841F0E0B6E710EC0
:10003C000C6E1E0E0D6E0D2EFED70C2EFCD70B2E3D
:10004C00FAD7000089821F0E0B6E710E0C6E1E0EFD
:10005C000D6E0D2EFED70C2EFCD70B2EFAD70000F2
:10006C0089801F0E0B6E710E0C6E1E0E0D6E0D2EFA
:10007C00FED70C2EFCD70B2EFAD700002CD0FE0E80
:10008C00891689801F0E0B6E710E0C6E1E0E0D6E76
:10009C000D2EFED70C2EFCD70B2EFAD70000898222
:1000AC001F0E0B6E710E0C6E1E0E0D6E0D2EFED7EE
:1000BC000C2EFCD70B2EFAD7000089841F0E0B6E6A
:1000CC00710E0C6E1E0E0D6E0D2EFED70C2EFCD767
:0A00DC000B2EFAD70000A0D7FFD7C3
:020000040030CA
:0E000000210E3F1EFF8181FF0FC00FE00F4059
:00000001FF
