:04000000FBEF0CF016
:1000080000C01EF001C01DF002C01CF003C01BF0B0
:1000180004C01AF005C019F008C018F009C017F09C
:100028000AC016F00BC015F0E1CF27F0E2CF28F098
:10003800E9CF25F0EACF26F0F3CF23F0F4CF24F070
:10004800F5CF22F0F8CF1FF0F7CF20F0F6CF21F050
:10005800DBEC0BF022C0F5FF1FC0F8FF20C0F7FF54
:1000680021C0F6FF23C0F3FF24C0F4FF1EC000F038
:100078001DC001F01CC002F01BC003F01AC004F040
:1000880019C005F018C008F017C009F016C00AF02A
:1000980015C00BF025C0E9FF26C0EAFF27C0E1FF25
:0600A80028C0E2FF110078
:1000AE001E0E716E100E526E040E536E52C0E1FF94
:1000BE0053C0E2FFE69E52C0E1FF53C0E2FFE69C52
:1000CE00040E5224E16E000E5320E26EE68C180EE2
:1000DE004E6E040E4F6E4EC0E1FF4FC0E2FFE69E25
:1000EE004EC0E1FF4FC0E2FFE69C040E4E24E16ECF
:1000FE00000E4F20E26EE68C020E5224E16E000ED0
:10010E005320E26E34C0E6FF35C0E6FF010E5224E6
:10011E00E16E000E5320E26E400EE66E52C0E9FF15
:10012E0053C0EAFFEECF00F052C0E1FF53C0E2FF32
:10013E00400E0014E66E52C0E9FF53C0EAFFEECF48
:10014E0000F0880E001252C0E1FF53C0E2FF00C063
:10015E00E6FF52C038F053C039F0040E5218006E4C
:06016E0000C052F0120077
:100174000B6A0A6A096A00500402F4CF09F0F3CF4B
:1001840008F001500502F4CF0BF0F3CF0AF0005051
:100194000502F3500926F4500A22E86A0B220150A2
:1001A4000402F3500926F4500A22E86A0B2208C01C
:1001B40000F009C001F00AC002F00BC003F0120005
:1001C400000E4B5C02E1080E4A5C10E24AC003F0E8
:1001D4004BC004F03750000A03E1010E376E05D01E
:1001E4003750010A02E1020E376E04D0080E036E86
:1001F400000E046E4CC0E1FF4DC0E2FFE6924CC01D
:10020400E1FF4DC0E2FFE6904CC0E9FF4DC0EAFFBC
:10021400EECF00F04CC0E1FF4DC0E2FF04500010EF
:10022400E66E010E4C24E16E000E4D20E26E03C01A
:10023400E6FF03504A5C006E04504B58016E00C048
:100244004AF001C04BF0280E0001696F040E6A6F7A
:1002540049B02FD0035004102BE046C0F6FF47C02E
:10026400F7FF48C0F8FF0900F5CF00F069C0E1FFCF
:100274006AC0E2FF00C0E6FF694B6A2B010E462408
:10028400006E000E4720016E000E4820026E00C072
:1002940046F001C047F002C048F0010E035C006E56
:1002A400000E0458016E00C003F001C004F0D2D760
:1002B40024D00350041021E046C0E9FF47C0EAFF00
:1002C40069C0E1FF6AC0E2FFEECFE6FF694B6A2B2B
:1002D400010E4624006E000E4720016E00C046F059
:1002E40001C047F0010E035C006E000E0458016E5D
:0C02F40000C003F001C004F0DCD71200D1
:10030000498E716A336A22C432F03250000A03E126
:0E031000100E316E03D0200E316EC9DE1200C9
:10031E0004012051800AD8A473D0C00E496E65D056
:10032E00D80E006E1A0E016E000E026E00C046F060
:10033E0001C047F002C048F0120E4A6E000E4B6E1E
:10034E005FD0030E006E000E016E22C404F0000E8C
:10035E00056E09DF430E0024E96E000E0120EA6EE1
:10036E00EECF46F0EECF47F0EECF48F0020E462429
:10037E00F66E000E4720F76E000E4820F86E09004C
:10038E00F5CF00F00900F5CF01F000C04AF001C032
:10039E004BF036D022510001655D23E3030E006E53
:1003AE00000E016E22C404F0000E056EDCDE3A0E65
:1003BE000024E96E000E0120EA6EEECF46F0EECF7D
:1003CE0047F0EECF48F046C0F6FF47C0F7FF48C0F3
:1003DE00F8FF0900F5CF00F000C04AF0000E4B6E9A
:1003EE0001D0496A0DD0496A0BD004012351010A8C
:1003FE0097E02351020AA5E02351030ACBE0F3D77D
:02040E001200DA
:1004100020C401F01F0E01160150010A01E08DD029
:1004200004012451000A01E088D02151060A3FE16D
:1004300034D03250010A17E1810E006E1A0E016E9F
:10044000000E026E120E0026000E0122022200C0D3
:1004500046F001C047F002C048F0090E4A6E000E97
:100460004B6EC00E496E23D03250010A12E1420E8B
:10047000006E1A0E016E000E026E00C046F001C042
:1004800047F002C048F03F0E4A6E000E4B6EC00EA1
:10049000496E0DD0800E496E0AD004012351210A05
:1004A000C8E02351220AE0E02351230AF3E020C4EC
:1004B00001F0600E0116050E006E005004E00132DE
:1004C000019EFF0FFBD70150010A01E036D022D078
:1004D00034D033D0680E466E000E476E010E4A6E61
:1004E000000E4B6EC10E496E28D0800E496E23C49B
:1004F00068F023D0580E466E000E476E010E4A6E0D
:10050000000E4B6E810E496E18D0800E496E22C4CB
:1005100058F013D004012151010ADAE02151090AEF
:10052000D8E02151020AD6E021510A0ADEE0215129
:0C053000030AE0E021510B0AE8E0120091
:10053C0004012251010A0FE120C401F01F0E011623
:10054C000150000A08E1498E2151030A03E1010E12
:10055C00546E01D0546A2251000AD8A48BD020C406
:10056C0001F01F0E01160150020AD8A483D024C436
:10057C0001F00F0E01160150000AD8B47BD0498E41
:10058C0024BF16D024C403F00F0E031603C000F0D2
:10059C00000E016E003600900136500E0024E96EFC
:1005AC00000E0120EA6EEECF04F0EECF05F015D070
:1005BC0024C403F00F0E031603C000F0000E016EEE
:1005CC000036009001364C0E0024E96E000E01201E
:1005DC00EA6EEECF04F0EECF05F02151030A07E1ED
:1005EC0004C0E1FF05C0E2FF840EE66E43D024C4D4
:1005FC0000F00F0E0016700E026E0F0E036E005000
:10060C000226D8B0032A02C0E9FF03C0EAFFFE0E9F
:10061C00EE14006EEECF01F0FF0E011602C0E1FFEA
:10062C0003C0E2FF00C0E6FF01C0E6FF24AF11D01B
:10063C0004C0E1FF05C0E2FFE66A040E0418006E78
:10064C0000C004F004C0E1FF05C0E2FF400EE66EFE
:10065C0011D004C0E1FF05C0E2FF880EE66E040E67
:10066C000418006E00C004F004C0E1FF05C0E2FFF6
:06067C00C80EE66E12003C
:100682000401286B296B42D0498E28815450010AFB
:10069200D8B4288350D0498E4ED0498E24BF16D06C
:1006A20024C403F00F0E031603C000F0000E016E07
:1006B200003600900136500E0024E96E000E012033
:1006C200EA6EEECF04F0EECF05F015D024C403F0AD
:1006D2000F0E031603C000F0000E016E00360090EC
:1006E20001364C0E0024E96E000E0120EA6EEECFB8
:1006F20004F0EECF05F004C0E9FF05C0EAFFEECF3B
:1007020001F001A402D0010E286F15D020C401F01F
:100712001F0E01160150000AB7E020C401F01F0E9F
:1007220001160150010AB7E020C401F01F0E0116A4
:100732000150020AB2E049AE07D0280E466E040EFE
:0A074200476E4980020E4A6E120055
:10074C006D9849BE4AD000016DAF28D0020E366EAE
:10075C00010E4C24E16E000E4D20E26EE66A4CC098
:10076C00E1FF4DC0E2FFC80EE66E010E6325E16E9F
:10077C00000E6421E26E080EE66E020E6325E16E39
:10078C00000E6421E26E280EE66E040EE66E63C067
:10079C00E1FF64C0E2FFC80EE66E1ED0010E6325B9
:1007AC00E16E000E6421E26E080EE66E020E632509
:1007BC00E16E000E6421E26E200EE66E040EE66E13
:1007CC0063C0E1FF64C0E2FF8C0EE66E4CC0E1FF3B
:1007DC004DC0E2FF840EE66E80D000016DBF7DD06F
:1007EC00040120AF52D04B50275D02E14A50265DE8
:1007FC0004E226C44AF027C44BF0DEDC010E366E50
:10080C00010E00016325E16E000E6421E26E080EFC
:10081C00E66E020E6325E16E000E6421E26E200E80
:10082C00E66E040EE66E63C0E1FF64C0E2FF800E6C
:10083C00E66E606B010E6625E16E000E6721E26EBE
:10084C00080EE66E020E6625E16E000E6721E26E62
:10085C00200EE66E040EE66E66C0E1FF67C0E2FF96
:10086C00840EE66E010E606F020E4C24E16E000EDB
:10087C004D20E26E280EE66E040EE66E4CC0E1FFD3
:10088C004DC0E2FFC80EE66E28D00001020E366E97
:10089C00010E4C24E16E000E4D20E26EE66A4CC057
:1008AC00E1FF4DC0E2FFC80EE66E010E6325E16E5E
:1008BC00000E6421E26E080EE66E020E6325E16EF8
:1008CC00000E6421E26E280EE66E040EE66E63C026
:0C08DC00E1FF64C0E2FFC80EE66E1200EF
:1008E800810E436E1A0E446E000E456EEA0E3A6E85
:1008F8001A0E3B6E000E3C6EC40E3D6E1A0E3E6E16
:10090800000E3F6EAA0E406E1A0E416E000E426E29
:020918001200CB
:08091A00575201E078DD1200E4
:10092200010E00016625E96E000E6721EA6EEECF28
:1009320000F000C002F0000E6F5D02E102506E5D39
:1009420003E26EC002F00AD002506E5D006E000E2D
:100952006F59016E00C06EF001C06FF0036A025061
:10096200035C1CE2280EE96E040EEA6E0350E926CF
:10097200D8B0EA2AEECF00F06BC0E1FF6CC0E2FF14
:1009820000C0E6FF010E6B25006E000E6C21016EA9
:1009920000C06BF001C06CF0032AE1D7000E006EBC
:1009A2006F51005C02E16E51000828E2010E6325DE
:1009B200E16E000E6421E26E080EE66E020E632501
:1009C200E16E000E6421E26E280EE66E040EE66E03
:1009D20066C0E9FF67C0EAFFEECF00F000BC07D0B7
:1009E20063C0E1FF64C0E2FFC80EE66E06D063C0DA
:1009F200E1FF64C0E2FF880EE66E19D0010E6325A6
:100A0200E16E000E6421E26E080EE66E020E6325B0
:100A1200E16E000E6421E26E200EE66E040EE66EBA
:100A220063C0E1FF64C0E2FF840EE66E6D9F1200B8
:100A320020C401F0600E0116050E006E005004E0A5
:100A42000132019EFF0FFBD70150000A01E058D08E
:100A520034D0498E080E316E53D060DC51D04FDC59
:100A62004FD0320E466E000E476E4980010E4A6E1E
:100A7200498E46D005DE44D060DD42D0330E006E92
:100A8200000E016E24510026D8B0012A00C046F0A3
:100A920001C047F04980010E4A6E498E31D0498E1D
:100AA200330EE16E000EE26E2451E126D8B0E22A46
:100AB20022C4E6FF25D024D023D004012151050A07
:100AC200C8E02151060AC9E02151090AC8E02151B2
:100AD200080AC7E02151000ACDE02151010ACCE009
:100AE2002151030AC9E021510A0AC8E021510B0A27
:100AF200D6E02151070ADFE021510C0ADDE0DCD704
:020B02001200DF
:0E0B0400160E6F6E9F0E6B6E3B0E696E12002A
:100B1200366A4CC0E1FF4DC0E2FFE66A040E4C1893
:100B2200E16E4DC0E2FF000EE21AE66A00016DAF0F
:060B320001D06D9F1200CE
:100B3800040E4C18006E00C04CF03150080A0AE14F
:100B480022C46EFF6E50000803E2100E316E02D010
:100B5800040E316E3650010A3BE1020E4C24E16E60
:100B6800000E4D20E26E280EE66E040EE66EE2ECF4
:100B780000F03750020A07E14CC0E1FF4DC0E2FF28
:100B8800840EE66E24D0040E4C18006E00C04CF0A3
:100B98004CC0E9FF4DC0EAFFEECF00F000BC0CD01E
:100BA800040E4C18006E00C04CF04CC0E1FF4DC064
:100BB800E2FFC80EE66E0BD0040E4C18006E00C0A3
:100BC8004CF04CC0E1FF4DC0E2FF880EE66E01D04C
:040BD8009CDF12008C
:100BDC003650020A02E19FDE1ED095DF6051000AFA
:100BEC0019E1010E6325E16E000E6421E26E080E20
:100BFC00E66E020E6325E16E000E6421E26E200E9D
:100C0C00E66E040EE66E63C0E1FF64C0E2FF8C0E7C
:080C1C00E66E01D0606B1200CE
:100C240061DE386A396A556A566A6A6A686A68DFD0
:100C34006D8C6E6A716A6D9C5E6A5F6A000E5F5CA1
:100C440002E1080E5E5C17E25EC000F05FC001F0D6
:100C5400003600900136003600900136000E002464
:100C6400E16E040E0120E26EE66AE66AE66AE66A6E
:100C74005E4A5F2AE3D7160E706E68A603D0F70E9D
:100C84006816FBD7496A00016D6B6E6B6F6B6D98CC
:0E0C9400080E4C6E040E4D6E326A316A12006C
:100CA20070A01CD066C0E9FF67C0EAFFEECF01F07A
:100CB2000150800A12E14CC0E9FF4DC0EAFFEECFBD
:100CC20001F0000E000A02E1840E011806E166C07E
:100CD200E1FF67C0E2FF8C0EE66E7090DF0E6816D1
:020CE2001200FE
:0A0CE4006984EF0E68166D8212009D
:100CEE004CC0E9FF4DC0EAFFEECF00F000AE05D0DC
:100CFE004CC0E1FF4DC0E2FFE66A376A366A4A6AC7
:0C0D0E004B6A496A8FDE02DE1ADD12001B
:040D1A00A19A120088
:100D1E006D92699468A403D0FB0E6816FBD712007F
:100D2E00000E0001841902E1000E831902E1016A2E
:100D3E000AD083C0E9FF84C0EAFFEECF00F0000EB8
:0C0D4E0000BE010E016E01C000F012009A
:100D5A0000018451000A12E083C000F0000E016E07
:100D6A000036009001364C0E0024E96E000E012078
:100D7A00EA6EEECF04F0EECF05F011D083C000F09A
:100D8A00000E016E003600900136500E0024E96E06
:100D9A00000E0120EA6EEECF04F0EECF05F0020E4F
:100DAA000424E16E000E0520E26E85C0E6FF86C0CF
:100DBA00E6FF010E0424E16E000E0520E26E87C0F4
:100DCA00E6FF04C0E9FF05C0EAFFEECF00F004C069
:100DDA00E1FF05C0E2FF400E0014E66E04C0E9FF21
:100DEA0005C0EAFFEECF00F0880E001204C0E1FF52
:100DFA0005C0E2FF00C0E6FF8451000A1BE083C081
:100E0A0000F0000E016E0036009001364C0E0024F0
:100E1A00026E000E0120036E02C0E9FF03C0EAFF62
:100E2A00040EEE18006E02C0E1FF03C0E2FF00C02C
:100E3A00E6FF1AD083C000F0000E016E0036009063
:100E4A000136500E0024026E000E0120036E02C00D
:100E5A00E9FF03C0EAFF040EEE18006E02C0E1FFCC
:100E6A0003C0E2FF00C0E6FF04C000F005C001F0C5
:020E7A00120064
:100E7C003150000A09E16D6A696A3EDE6DB602D036
:100E8C006D86FCD7010E316E3150010A08E16DBA46
:100E9C0006D0686A696A69806988020E316E68A436
:100EAC0005D069A403D0FB0E681633DF6DA202D007
:100EBC002EDFD5D068A018D069A016D0ADDE040EF8
:100ECC00316E200E0401026F040E036F080E016FC9
:100EDC00000E0015006E00C000F48C0E0011006EA8
:100EEC0000C000F4FE0E681668A805D069A803D0EF
:100EFC00F3DEEF0E681668AC04D069AC02D0BF0EFE
:100F0C00681668AA03D069AA01D0C5DE68A202D00F
:100F1C0069B26A6A040E315C02E2F9DEA0D069A6FD
:100F2C009DD00001846B040E845DD8B097D068A668
:100F3C0091D06CCF5DF0F70E6816780E5D14016ED3
:100F4C000150000AD8A485D0FD0E5D14016E026A12
:100F5C00FF0E0216000E021802E1000E01186BE1E2
:100F6C007E0E5D14016E01C003F00332039E03C0BC
:100F7C0000F0000E016E0036009001360036009035
:100F8C000136000E0024026E040E0120036E02C016
:100F9C0066F003C067F002C063F003C064F0040E97
:100FAC006319006E00C063F002C0E9FF03C0EAFFE2
:100FBC00EECF00F000C001F03C0E01160132019E94
:100FCC000132019E01500D0A34E1020E6625E96ED4
:100FDC00000E6721EA6EEECF01F0EECF02F0025068
:100FEC00040A02E1280E011822E1020E6625E16EC8
:100FFC00000E6721E26E200EE66E040EE66E836B29
:10100C00080E835D14E2200EE16E040EE26E835135
:10101C00E126D8B0E22A280EE96E040EEA6E83515E
:10102C00E926D8B0EA2AEECFE6FF832BE9D759DEC2
:10103C0001D0CEDD0DD0FD0E5D14016E026AFF0EE7
:10104C000216000E021802E1040E011801E16EDD19
:10105C0000D001D003D00001842B65D758DE1200DC
:10106C00D80E006E1A0E016E000E026E0E0E0024CB
:10107C00F66E000E0120F76E000E0220F86E0900CD
:10108C00F5CF03F003C004F00F0E0024F66E000E33
:10109C000120F76E000E0220F86E0900F5CF01F06A
:1010AC000150035C12E2D80E006E1A0E016E000E97
:1010BC00026E0F0E0024F66E000E0120F76E000E6D
:1010CC000220F86E0900F5CF04F0D80E006E1A0E4F
:1010DC00016E000E026E100E0024F66E000E012042
:1010EC00F76E000E0220F86E0900F5CF01F00150EA
:1010FC00045C12E2D80E006E1A0E016E000E026E27
:10110C00100E0024F66E000E0120F76E000E022069
:0E111C00F86E0900F5CF04F004C000F01200D8
:10112A00200E315C03E36DB201D002D0006A4ED0CA
:10113A0055C083F056C084F0F5DD005246E180C008
:10114A0083F0010E846F7DC085F07EC086F07FC07B
:10115A0087F0FEDD00C055F001C056F0596A5A6AA0
:10116A005B6A5C6A55C083F056C084F0DBDD0052CE
:10117A0016E0200E315C03E36DB201D002D0006AA2
:10118A0025D0010E016E0150000A01E172DE5950AC
:10119A005A105B105C1002E0006A18D0E3D755C001
:1011AA0081F056C082F0000E561802E1000E551862
:1011BA000AE0010E00018125E96E000E8221EA6E25
:0E11CA00EECF00F003D0006A01D0006A1200E0
:0A11D800D08EA28AA08AF28E1200C7
:1011E20000017D517A0806E3610E7D5D03E3010E85
:0811F200006E01D0006A12003A
:1011FA0000017D515A0806E3410E7D5D03E3010EAD
:08120A00006E01D0006A120021
:101212000001806B816B826B020E7D25F66E000EE3
:101222007E21F76E000E7F21F86E0900F5CF05F0E2
:10123200030E7D25F66E000E7E21F76E000E7F21D5
:10124200F86E0900F5CF00F000C003F0000E046E46
:1012520003C001F0006A05500024066E000E012052
:10126200076E7DC008F07EC009F07FC00AF0010E53
:101272000824F66E000E0920F76E000E0A20F86EA2
:101282000900F5CF01F00150020A1BE1060E082405
:10129200F66E000E0920F76E000E0A20F86E0900A5
:1012A200F5CF01F00150805D0CE2060E0824F66EC7
:1012B200000E0920F76E000E0A20F86E0900F5CF25
:1012C20080F0010E0824F66E000E0920F76E000E63
:1012D2000A20F86E0900F5CF01F00150040A1BE163
:1012E200080E0824F66E000E0920F76E000E0A2082
:1012F200F86E0900F5CF01F00150805D0CE2080E96
:101302000824F66E000E0920F76E000E0A20F86E11
:101312000900F5CF80F008C0F6FF09C0F7FF0AC048
:10132200F8FF0900F5CF00F000508125016E000E94
:101332008221026E01C081F002C082F00750025C7D
:1013420002E10650015C01E30FD008C0F6FF09C0BC
:10135200F7FF0AC0F8FF0900F5CF00F00050082699
:0E136200000E09220A2283D780C000F012007C
:1013700000017A51390806E3300E7A5D03E3010E6D
:08138000006E01D0006A1200AA
:1013880000017A511F0805E27A517F0A02E0006ADB
:0813980002D0010E006E1200EC
:1013A0003150000A0BE16D6A696A82EC05F014DFC6
:0E13B0006DB602D06D86FCD7010E316E1200B4
:1013BE007AC07DF07BC07EF07CC07FF0010E000114
:0613CE00806FACDE12008E
:1013D4007AC07DF004DF005207E17AC07DF00BDFB4
:0E13E400005202E1006A02D0010E006E1200FB
:1013F20000017A517A0804E3610E7A5DD8B07A9BD3
:061402007AC000F01200A8
:1014080031DE00C07AF0810E00017D6F1A0E7E6F0A
:10141800000E7F6FFADE00C07BF07A51005C03E2B9
:0C1428007AC000F002D07BC000F012007F
:10143400E9DF00C065F0010E576E76C034F077C066
:1014440035F078C061F079C062F012EC06F0010E5C
:0C145400016E0150010A01E1A1DF12004D
:101460000001776B786B76C07AF08EDF005203E074
:10147000010E776F1BD076C07AF0ACDF00520CE023
:10148000020E776F76C07DF0B8DE005203E0020EE8
:10149000786F01D0786B0AD076C07AF069DF00529D
:1014A00003E0030E776F02D0040E776F2ED17651D2
:1014B0000D0A04E076510A0A01E003D0280E766F87
:1014C0000BD07651090A03E12B0E766F05D07651C9
:1014D000080A02E12A0E766F29D176C07AF089DFF8
:1014E00000C076F0410E005C766F040E76271ED1A8
:1014F0007651300A03E1620E766F04D0310E765FCA
:10150000590E762713D176512D0A04E076515F0AE1
:1015100001E008D076515F0A02E1020E786F2D0ECD
:10152000766FF1D076512B0A04E076513D0A01E046
:1015300008D076513D0A02E1020E786F2E0E766FCA
:10154000E2D076517B0A04E076515B0A01E008D0D4
:1015500076517B0A02E1020E786F2F0E766FD3D0A0
:1015600076517D0A04E076515D0A01E008D076519B
:101570007D0A02E1020E786F300E766FC4D076518C
:101580005C0A04E076517C0A01E008D076517C0ABE
:1015900002E1020E786F310E766FB5D07651090AEE
:1015A00003E12B0E766FAFD076513A0A04E0765104
:1015B0003B0A01E008D076513A0A02E1020E786F48
:1015C000330E766FA0D07651270A04E07651220AB6
:1015D00001E008D07651220A02E1020E786F340E43
:1015E000766F91D07651600A04E076517E0A01E070
:1015F00008D076517E0A02E1020E786F350E766FC2
:1016000082D076512C0A04E076513C0A01E008D0E1
:1016100076513C0A02E1020E786F360E766F73D077
:1016200076512E0A04E076513E0A01E008D0765148
:101630003E0A02E1020E786F370E766F64D0765163
:101640002F0A04E076513F0A01E008D076513F0AA4
:1016500002E1020E786F380E766F55D07651210A6E
:1016600005E1020E786F1E0E766F4DD07651400A5E
:1016700005E1020E786F1F0E766F45D07651230A72
:1016800005E1020E786F200E766F3DD07651240A68
:1016900005E1020E786F210E766F35D07651250A5E
:1016A00005E1020E786F220E766F2DD076515E0A1C
:1016B00005E1020E786F230E766F25D07651260A4B
:1016C00005E1020E786F240E766F1DD076512A0A3E
:1016D00005E1020E786F250E766F15D07651280A37
:1016E00005E1020E786F260E766F0DD07651290A2D
:1016F00005E1020E786F270E766F05D07651200A2D
:1017000002E12C0E766F12D011D07751010AD8B4B5
:10171000CED67751020AD8B4E0D67751030AD8B4AE
:10172000E7D67751040AD8B4EED6EED778C040F5A4
:101730000501416B76C042F5436B446B456B466BCC
:10174000476B400E00017A6F050E7B6F080E7C6FB1
:1017500036DE005201E1F5D7020E0B6ED40E0C6E90
:10176000850E0D6E0D2EFED70C2EFCD70B2EFAD744
:101770000501406B426B400E00017A6F050E7B6FD6
:10178000080E7C6F1CDE005201E1F5D7020E0B6ED5
:10179000D40E0C6E850E0D6E0D2EFED70C2EFCD7C2
:0617A0000B2EFAD7120027
:1017A6000900F5CFE6FF0006FBE10106F9E11200AC
:1017B6003150010A07E16DBA05D0686A6980698807
:1017C600020E316E68A406D069A404D0FB0E68161A
:1017D6008FEC06F06DA203D08DEC06F0DDD068A08C
:1017E60019D069A017D012EC06F0040E316E200E47
:1017F6000401026F040E036F080E016F000E001540
:10180600006E00C000F48C0E0011006E00C000F4E3
:10181600FE0E681668A806D069A804D072EC06F019
:10182600EF0E681668AC04D069AC02D0BF0E68161D
:1018360068AA04D069AA02D051EC06F068A202D0C8
:1018460069B26A6A040E315C03E28DEC06F0A4D03C
:1018560069A6A0D00001896B040E895DD8B09AD024
:1018660068A694D06CCF5DF0F70E6816780E5D14FE
:10187600016E0150000AD8A488D0FD0E5D14016ED9
:10188600026AFF0E0216000E021802E1000E01188F
:101896006DE17E0E5D14016E01C003F00332039EFE
:1018A60003C000F0000E016E0036009001360036CF
:1018B60000900136000E0024026E040E0120036E15
:1018C60002C066F003C067F002C063F003C064F0B4
:1018D600040E6319006E00C063F002C0E9FF03C086
:1018E600EAFFEECF00F000C001F03C0E0116013217
:1018F600019E0132019E01500D0A35E1020E662558
:10190600E96E000E6721EA6EEECF01F0EECF02F02F
:101916000250040A02E1280E011822E1020E662591
:10192600E16E000E6721E26E200EE66E040EE66E94
:10193600886B080E885D14E2200EE16E040EE26EDE
:101946008851E126D8B0E22A280EE96E040EEA6E26
:101956008851E926D8B0EA2AEECFE6FF882BE9D7E8
:1019660077EC06F002D0EEEC05F00ED0FD0E5D141D
:10197600016E026AFF0E0216000E021802E1040E44
:10198600011802E19CEC05F000D001D003D0000163
:0A199600892B62D78DEC06F01200D9
:1019A00074C0E9FF75C0EAFFEE520BE074C0E9FFB6
:1019B00075C0EAFFEECF76F053DD0001744B752B56
:0419C000EFD712004B
:1019C400000E0001766F050E776F400E786F050EDE
:1019D400796F2EDD3D0E0B6EE10E0C6E3F0E0D6E1B
:1019E4000D2EFED70C2EFCD70B2EFAD700000000CC
:0219F4001200DF
:1019F600490E296E4E0E2A6E470E2B6E410E2C6E28
:101A06004D0E2D6E450E2E6E0D0E2F6E306AD7DFE3
:101A1600290E0001746F000E756FBFDF7A0E0B6E14
:101A2600C10E0C6E810E0D6E0D2EFED70C2EFCD740
:0C1A36000B2EFAD700000000EBD7FFD702
:101A420005010906A101050719E029E7150025018D
:101A52007501950881029501750881039505750147
:101A6200050819012905910295017503910395064F
:0F1A72007508150025650507190029658100C055
:101A8100090229000101008032090400000203005B
:101A91000000092101010001223F000705810340E7
:091AA100000107050103400001EA
:101AAA001A0355005300420020004B0065007900DC
:0A1ABA0062006F006100720064001A
:101AC40014034D006900630072006F006300680036
:041AD4006900700035
:101AD8001201000200000008341201000001010296
:021AE8000001FB
:041AEA0004030904E4
:020000040030CA
:0E000000210E3F1FFF8181FF0FC00FE00F4058
:00000001FF
